:1000000028C027C075C209021200010100800A0938
:10001000040000000000000012011001FF000008B1
:10002000C016DC050001010203010A0330003000A4
:1000300030003000100348004900440061007300A4
:10004000700078000A03590043004900540004037B
:10005000090411241FBECFEDCDBFA0E6B0E0EEE84D
:10006000F7E005900D92A236E1F71D92A53BE9F766
:1000700017C1CF939AE19DB98FB980E48EB99920C9
:1000800089F4C79AC798C79AC798C79AC798C79A52
:10009000C798C79AC798C79AC798C79AC798C79A60
:1000A000C79812C081E0981629F48BE18DB9769B30
:1000B000FDCF0AC0C92DC23019F006D1C150FBCF07
:1000C0008BE18DB9769BF6CF1DB88FB19927CF9173
:1000D0000895EF92FF920F931F93CF93DF93909128
:1000E000630010916400292F2E7F392F387F85E51A
:1000F000809363009230F9F48091650084FF04C01E
:100100008FE087BB8BE012C087FF05C0C79A84E6EB
:10011000D6D0C7980CC08FED87BBC498C79886E02F
:10012000CED0C49A84E6CBD088B3877E88BB8AEAD7
:100130008093630076C0203151F4C3E6D0E013E031
:10014000898197DF8993115017FFFACF6AC09431E4
:1001500021F4612E7724872C64C0303209F03EC030
:100160008FEF80939B00E92EFF24E1FE04C090E412
:10017000692E7724872C00E00117D0F4C3E6D0E085
:10018000862D77DF882D75DF872D73DF8A8171DFFC
:100190008883862D887831F0739409F4839487EFEF
:1001A000682202C0E8E06E2A0F5F2196011740F333
:1001B000E2FE11C0C02FDD2783E6E82E80E0F82E96
:1001C000CB59DF4F13E0899154DFF70181937F0111
:1001D000115017FFF8CF10929B0023C09C3311F4ED
:1001E000912E1FC02E33E9F4E0916500F091660076
:1001F0009F3359F490E09117A0F4A3E6B0E0819109
:100200008D939F5F9117D8F30CC020916700909158
:100210006800992329F080818923822B808301C083
:100220002083DF91CF911F910F91FF90EF90089560
:10023000FC018081807691818032A9F4913061F453
:1002400082818093620082E690E090939A0080938E
:100250009900868199270895993029F4442456807D
:100260008FEF90E0089580E090E00895DC0156164D
:1002700008F4652D561A20E0261748F4E42DFF27D0
:10028000EE59FF4F9D91908343942F5FF5CF5520FA
:1002900021F41FDF81E090E0089580E090E0089570
:1002A000CFEDD0E0DEBFCDBF959A87EE81BB88E071
:1002B00088BB8FE087BBFCD0789407D0FECF98E254
:1002C0009150F1F78150D9F70895CF93DF93609162
:1002D0009B00635067FD9AC080919800CBEAD0E004
:1002E000C81BD109809197008D3209F079C0683020
:1002F00009F086C083EC80938B008AE580936000D0
:1003000010928A008881807619F0CE0191DF54C066
:1003100044E950E02A81809394009981992321F443
:100320008093950082E044C0953019F420939C009E
:100330003FC0963081F5382F8B81813021F432E136
:1003400088E190E01FC0823021F432E186E090E045
:1003500019C08330D9F4222321F434E08EE490E0F4
:1003600011C0213021F43AE084E490E00BC0223047
:1003700021F430E184E390E005C0233039F43AE021
:100380008AE290E090939A008093990080E48093B1
:100390008A00832F11C0983019F44EE950E007C04D
:1003A000993019F420939E0003C09A3009F481E03B
:1003B00050939A0040939900982F8F3F39F4888189
:1003C00087FD9E8180E880938A0007C08F81882303
:1003D00021F48E81891708F4982F9093610010C042
:1003E00080918A0087FF0CC0CE0140DF8F3F21F44F
:1003F0008EE18093600004C0882311F010926100A8
:1004000080919B00181614F410929B00809160005C
:1004100084FF3FC0809161008F3F09F43AC0682F8C
:10042000893008F068E0861B8093610080918B0022
:1004300098E8892780938B00ACE8B0E06623C1F090
:10044000962FE0919900F0919A0080918A0086FFA2
:1004500007C0C895802D8D9331969150D1F704C077
:1004600081918D939150E1F7F0939A00E093990078
:100470007727C62F693038F48CE890E035D0CC5F10
:10048000CC3028F401C0CEE18FEF80936100C0939F
:1004900060009AE080B3887111F49150D9F79923E4
:1004A00021F490939C0090939600DF91CF91089552
:1004B00085B78C6085BF8BB780688BBF0895A82FE8
:1004C000B92F80E090E041E050EA60956F5F58F40A
:1004D0002D9138EF82279795879510F084279527DF
:1004E0003F5FC8F3F3CF0895EADF8D939D9308959E
:1004F000CF93CFB7CF93849BFECF849B09C0849BBF
:1005000007C0849B05C0849B03C0849B01C0A1C01D
:10051000DF93C0919800DD27C156DF4F849B02C056
:10052000DF91EBCF2F930F931F9300B32FEF04FBBB
:1005300020F94F933F9310B34FEF012704FB21F9AC
:100540003BE031C04E7F012F10B3216028C0102F37
:100550004D7F2260000000B329C04B7F2460012F33
:10056000000010B32BC010B3477F28602AC04F7E15
:1005700000B320612CC04F7D10B320622FC04F7B91
:1005800000B3206432C0422700B349934FEF00000C
:10059000102714FB20F910B31871C9F1297F91F2CB
:1005A000012704FB21F900B3237F89F2315058F170
:1005B000102714FB22F910B3277E79F2012704FBE0
:1005C00023F92F7C81F200B3102714FB24F92F7933
:1005D00071F200C010B3012704FB25F92F7359F203
:1005E00000C000B3102714FB26F9223040F200C0EF
:1005F00010B3012704FB27F9243028F64F77206831
:1006000010B30000F9CF10E81ABF002717C03B5005
:100610003195C31BD04010E81ABF0881033CE9F0B4
:100620000B34D9F0209196001981110F1213EDCFE0
:10063000093641F10D3211F0013E39F700939D006A
:100640003F914F911F910F912F91DF91CAB7C7FD35
:1006500052CFCF91CFBFCF91189500919D0000232D
:1006600079F310919B00112349F534304AF130930E
:100670009B0000939700109198003BE0311B309352
:1006800098001EC000919B000130C4F40AE530912F
:10069000600034FD17C000936000CBE8D0E016C0C6
:1006A000052710E002BB1FC0052722C0052727C071
:1006B00005272CC0052710E002BB33C04AE503C064
:1006C00042ED01C0432FC4E1D0E032E011B3186124
:1006D000949A02B311BB5F9358E120E820FF0527ED
:1006E00002BB279517951C3FD8F620FF05272795B5
:1006F00002BB17951C3FC0F620FF052727951795CD
:1007000002BB1C3F98F620FF0527279517951C3F35
:1007100002BB70F600C0499120FF052702BB279558
:1007200017951C3F38F620FF0527279502BB179524
:100730001C3F38F520FF05272795179502BB1C3F66
:1007400010F520FF0527279517951C3F02BBE8F4FD
:10075000242F3A9519F6077E5F9102BB10919C00F9
:10076000110FC651D04011F01093960010E81ABF37
:10077000006111B3177E402F477E02BB11BB42BB05
:0E0780005FCF0527D3CF0527D8CF0527DDCFC4
:02078E005AFF10
:00000001FF
