:1000000046C045C0FBC20600FF0901A1011500263C
:10001000FF007508850195060900B2020185029569
:100020001E0900B20201850395260900B20201856E
:100030000495040900B20201C0040309040A03592B
:100040000043004900540010034800490044006187
:10005000007300700078000A033000300030003078
:10006000001201100100000008C016DF05000101A8
:1000700002030109021B0001010080320904000093
:1000800000030000000921010100012233001124B6
:100090001FBECFEDCDBFA0E6B0E0E6E5F8E00590ED
:1000A0000D92A236E1F71D92A53BE9F728C0DC01CD
:1000B00011969C9111978C9180768032F1F4913059
:1000C000A9F412962C9112972093620082E690E098
:1000D00090939A0080939900243029F4E72DF0E062
:1000E00080818093630016968C910895993029F44D
:1000F000442416965C908FEF089580E0089599242B
:1001000003C088EC2DD1939485E98915D0F782B38B
:10011000876682BB8AE024D180EA81BB80B3847089
:10012000A82E51F08BE088BB8FE087BB82E480BFB4
:1001300081E083BF85E086BF19D178941ED1FECFC0
:100140000F931F939AE19DB98FB980E48EB9892DE1
:10015000992089F4C79AC798C79AC798C79AC79829
:10016000C79AC798C79AC798C79AC798C79AC7988F
:10017000C79AC79811C0813029F48BE18DB9769B5D
:10018000FDCF0AC00BE1192D02C0EFD01150123083
:10019000E1F70DB9769BF7CF1DB88FB11F910F9185
:1001A0000895BF92CF92DF92EF92FF920F931F9329
:1001B000CF93DF93909163002091640085E5809355
:1001C0006300923019F5AA2011F48AEB1CC08091CB
:1001D000650084FF04C08FE087BB8BE012C087FFFF
:1001E00005C0C79A84E6BCD0C7980CC08FED87BB0A
:1001F000C498C79886E0B4D0C49A84E6B1D088B3D6
:10020000877E88BB8AEA8093630080C0392F3E7F57
:10021000303151F4C3E6D0E0898192DF899380E0E8
:10022000C736D807C9F772C0943131F4622E709086
:100230006500809066006AC0892F887F803209F04F
:1002400041C08FEF80939B00B92E91FF04C030E432
:10025000632E7724882403E610E0E801E22EFF24D1
:100260006801CE0CDF1C1AC0862D6ADF882D68DF7E
:10027000872D66DF8A8164DF8883962D862D8878B6
:1002800049F0872D8F5F782E09F4839427EF622E33
:10029000692203C088E0682E692A2196CC15DD0505
:1002A00019F7B2FE0CC0E701CB59DF4F899148DF47
:1002B000F80181938F01F0E007361F07B9F710921C
:1002C0009B0024C09C3311F4922E20C03E33F1F4E5
:1002D000A0916500B09166009F3361F4922FC3E650
:1002E000D0E0FD0102C0819189938E2F8A1B89176E
:1002F000D0F30CC02091670090916800992329F0F9
:100300008C919823922B9C9301C02C93DF91CF91D9
:100310001F910F91FF90EF90DF90CF90BF900895C5
:10032000582F292F852D561608F4652D482F461B6A
:10033000542E852F922F9C01D90107C0E42DF0E0A7
:10034000EE59FF4F9D91908343948A2F851B86170A
:10035000A8F3442311F080E0089523DF81E008959D
:1003600098E29150F1F78150D9F7089585B78C60E4
:1003700085BF8BB780688BBF08951F93CF93DF93A2
:1003800060919B00635067FDC5C080919800CCE0F0
:10039000D0E0C81BD109C156DF4F809197008D3244
:1003A00009F0A2C0683009F0AFC083EC80938B00E5
:1003B0008AE58093600010928A008881807639F007
:1003C000CE0175DE282F8F3F09F47DC083C09A814E
:1003D000109294008981882321F41092950022E0E4
:1003E0006BC0853019F490939C0065C0863009F08D
:1003F00053C08B81813041F481E690E090939A0064
:100400008093990022E144C0823041F483E790E078
:1004100090939A00809399002BE13AC0833019F5AC
:10042000992341F489E390E090939A008093990096
:1004300024E02EC0913019F48DE390E00EC092308C
:1004400041F487E490E090939A008093990020E132
:100450001FC09330E1F487E590E090939A00809379
:1004600099002AE015C0813241F485E890E090932C
:100470009A008093990029E00BC0823241F486E013
:1004800090E090939A008093990023E301C020E0CC
:1004900080E480938A001EC0883021F421E08EE938
:1004A00090E00CC0893019F490939E0004C08A300B
:1004B00011F421E001C020E084E990E090939A00DB
:1004C0008093990007C0888187FD2E8180E8809302
:1004D0008A0006C08F81882319F48E81821708F064
:1004E000822F8093610010C080918A0087FF0CC02A
:1004F000CE0116DF8F3F21F48EE18093600004C0AF
:10050000882311F01092610080919B00181614F45A
:1005100010929B008091600084FF49C0809161002F
:100520008F3F09F444C0182F893008F018E0811B70
:100530008093610080918B0098E8892780938B00DD
:10054000112341F12091990030919A0080918A0005
:1005500086FF0DC0ACE8B0E080E090E0F901E80F64
:10056000F91FE491ED9301961817C1F708C0912F78
:10057000D901ECE8F0E08D9181939150E1F71150B1
:10058000812F90E01F5F0196820F931F90939A0036
:10059000809399008CE890E0612F2CD0612F6C5FE4
:1005A0006C3019F08FEF809361006093600094E1EC
:1005B00080B3887131F49150D9F710929C00109259
:1005C0009600DF91CF911F910895A82FB92F80E059
:1005D00090E041E050EA609530E009C02D9182271B
:1005E0009795879510F084279527305EC8F36F5F45
:1005F000A8F30895EADF8D939D930895CF93CFB725
:10060000CF93C395849BE9F7849B09C0849B07C063
:10061000849B05C0849B03C0849B01C0A1C0DF9361
:10062000C0919800DD27C156DF4F849B02C0DF9147
:10063000EBCF2F930F931F9300B32FEF04FB20F901
:100640004F933F9310B34FEF012704FB21F93BE099
:1006500031C04E7F012F10B3216028C0102F4D7F75
:100660002260000000B329C04B7F2460012F0000EE
:1006700010B32BC010B3477F28602AC04F7E00B351
:1006800020612CC04F7D10B320622FC04F7B00B380
:10069000206432C0422700B349934FEF0000102777
:1006A00014FB20F910B31871C9F1297F91F20127C9
:1006B00004FB21F900B3237F89F2315058F1102750
:1006C00014FB22F910B3277E79F2012704FB23F9EA
:1006D0002F7C81F200B3102714FB24F92F7971F2DB
:1006E00000C010B3012704FB25F92F7359F200C095
:1006F00000B3102714FB26F9223040F200C010B3DB
:10070000012704FB27F9243028F64F77206810B31F
:100710000000F9CF10E81ABF002717C03B503195F1
:10072000C31BD04010E81ABF0881033CE9F00B342A
:10073000D9F0209196001981110F1213EDCF0936CF
:1007400041F10D3211F0013E39F700939D003F91C8
:100750004F911F910F912F91DF91CAB7C7FD51CFD4
:10076000CF91CFBFCF91189520919D00222379F38F
:1007700010919B00112311F5343012F130939B003E
:1007800020939700109198003BE0311B3093980024
:1007900017C000919B0001308CF40AE53091600095
:1007A00034FD10C000936000CBE8D0E00FC0279567
:1007B000A8F45150A9F4220F0000F9CF4AE503C074
:1007C00042ED01C0432FC4E1D0E032E011B3186123
:1007D000949A11BB02B320E418E15F93012756E01D
:1007E00002BB279520F4515021F4220FF9CF0127A5
:1007F00056E000003B5A02BBD0F2279528F4515036
:1008000029F4220F0000F9CF012756E0279502BBFB
:1008100020F4515021F4220FF9CF012756E02991FD
:10082000332302BB21F6077E10919C00110FC651A5
:10083000D04002BB11F01093960010E81ABF00617F
:1008400011B3177E402F477E5F9100C000C002BBEE
:0608500011BB42BB7CCF8E
:020856005AFF47
:00000001FF
