:100000003FC03EC078C20600FF0901A101150026CD
:10001000FF007508850195060900B2020185029569
:100020001E0900B20201850395260900B20201C033
:1000300009021B00010100800A09040000000300FE
:100040000000092101010001222A00120110010013
:10005000000008C016DF0500010102030104033798
:1000600000100348004900440061007300700078EC
:10007000000A035900430049005400040309040026
:1000800011241FBECFEDCDBFA0E6B0E0E4E9F7E05C
:1000900005900D92A436E1F71D92A73BE9F700C148
:1000A0008FB980E48EB980916000882309F589E1D9
:1000B0008DB99BE19DB900008DB900009DB900008C
:1000C0008DB900009DB900008DB900009DB90000F8
:1000D0008DB900009DB900008DB900009DB90000E8
:1000E0008DB900009DB900008DB900009DB914C004
:1000F000813029F48BE18DB9769BFDCF0DC0982F0F
:10010000923031F000C000C000C000C09150F8CF64
:100110008BE18DB9769BF4CF8FB199270895EF923B
:10012000FF920F931F93CF93DF93909165001091EF
:100130006600392F3E7F292F287F85E58093650053
:10014000303151F4C5E6D0E013E08981A9DF89930D
:10015000115017FFFACF65C0943121F4612E772436
:10016000872C5FC02032C9F5E92EFF24E1FE04C0D0
:1001700090E4692E7724872C00E00117D0F4C5E6BF
:10018000D0E0862D8DDF882D8BDF872D89DF8A815A
:1001900087DF8883862D887831F0739409F48394FF
:1001A00087EF682202C0E8E06E2A0F5F21960117F0
:1001B00040F3E2FE36C0C02FDD2785E6E82E80E062
:1001C000F82EC959DF4F13E089916ADFF701819357
:1001D0007F01115017FFF8CF24C09C3319F41093FE
:1001E00060001FC03E33E9F4E0916700F0916800C1
:1001F0009F3359F490E09117A0F4A5E6B0E0819107
:100200008D939F5F9117D8F30CC020916900909156
:100210006A00992329F080818923822B808301C081
:100220002083DF91CF911F910F91FF90EF90089560
:10023000FC018081807691818032A9F4913061F453
:1002400082818093640084E690E090939C00809388
:100250009B00868199270895993029F4442456807B
:100260008FEF90E0089580E090E00895DC0156164D
:1002700008F4652D561A20E0261748F4E42DFF27D0
:10028000EC59FF4F9D91908343942F5FF5CF5520FC
:1002900021F445DF81E090E0089580E090E008954A
:1002A000CFEDD0E0DEBFCDBF87EE81BB88E088BB5D
:1002B0008FE087BB8AE18DB9FED0789401D0FECF64
:1002C000CF93DF9360919D00635067FDA2C0809142
:1002D0009A00CDEAD0E0C81BD109809199008D32F7
:1002E00009F085C0683009F092C083EC80938D00DE
:1002F0008AE58093610010928C008881807619F0E5
:10030000CE0196DF60C046E950E02A8180939600D6
:100310009981992321F48093970082E050C0953011
:1003200019F420939E004BC09630E1F5382F8B8155
:10033000813021F432E18BE490E02BC0823021F453
:100340003BE180E390E025C08330C1F4222321F417
:1003500034E08BE790E01DC0213021F43AE081E7E2
:1003600090E017C0223021F430E181E690E011C026
:10037000233099F434E08DE590E00BC0813221F414
:1003800039E082E490E005C0823239F43AE286E056
:1003900090E090939C0080939B0080E480938C007D
:1003A000832F11C0983019F440EA50E007C099300B
:1003B00019F42093A00003C09A3009F481E050930F
:1003C0009C0040939B00982F8F3F39F4888187FDD4
:1003D0009E8180E880938C0007C08F81882321F460
:1003E0008E81891708F4982F9093620010C0809135
:1003F0008C0087FF0CC0CE0139DF8F3F21F48EE1E6
:100400008093610004C0882311F010926200109262
:100410009D008091610084FF3FC0809162008F3F0A
:1004200009F43AC0682F893008F068E0861B809391
:10043000620080918D0098E8892780938D00AEE856
:10044000B0E06623C1F0962FE0919B00F0919C00F4
:1004500080918C0086FF07C0C895802D8D933196C2
:100460009150D1F704C081918D939150E1F7F093B1
:100470009C00E0939B007727C62F693038F48EE804
:1004800090E035D0CC5FCC3028F401C0CEE18FEFC6
:1004900080936200C09361009AE080B3887111F488
:1004A0009150D9F7992321F490939E00909398004E
:1004B000DF91CF91089585B78C6085BF8BB7806839
:1004C0008BBF0895A82FB92F80E090E041E050EA5B
:1004D00060956F5F58F42D9138EF82279795879537
:1004E00010F0842795273F5FC8F3F3CF0895EADF24
:1004F0008D939D930895CF93CFB7CF93849BFECFD9
:10050000849B09C0849B07C0849B05C0849B03C057
:10051000849B01C0A1C0DF93C0919A00DD27CF5515
:10052000DF4F849B02C0DF91EBCF2F930F931F937C
:1005300000B32FEF04FB20F94F933F9310B34FEF1D
:10054000012704FB21F93BE031C04E7F012F10B39E
:10055000216028C0102F4D7F2260000000B329C009
:100560004B7F2460012F000010B32BC010B3477FD6
:1005700028602AC04F7E00B320612CC04F7D10B38D
:1005800020622FC04F7B00B3206432C0422700B3EB
:1005900049934FEF0000102714FB20F910B3187196
:1005A000C9F1297F91F2012704FB21F900B3237FD0
:1005B00089F2315058F1102714FB22F910B3277E2D
:1005C00079F2012704FB23F92F7C81F200B3102775
:1005D00014FB24F92F7971F200C010B3012704FB3A
:1005E00025F92F7359F200C000B3102714FB26F928
:1005F000223040F200C010B3012704FB27F9243059
:1006000028F64F77206810B30000F9CF10E81ABF22
:10061000002717C03B503195C31BD04010E81ABFCC
:100620000881033CE9F00B34D9F02091980019813E
:10063000110F1213EDCF093641F10D3211F0013EC9
:1006400039F700939F003F914F911F910F912F9188
:10065000DF91CAB7C7FD52CFCF91CFBFCF911895C9
:1006600000919F00002379F310919D00112349F51B
:1006700034304AF130939D000093990010919A0014
:100680003BE0311B30939A001EC000919D00013069
:10069000C4F40AE53091610034FD17C00093610095
:1006A000CDE8D0E016C0052710E002BB1FC005272B
:1006B00022C0052727C005272CC0052710E002BB54
:1006C00033C04AE503C042ED01C0432FC4E1D0E08E
:1006D00032E011B31861949A02B311BB5F9358E1F1
:1006E00020E820FF052702BB279517951C3FD8F669
:1006F00020FF0527279502BB17951C3FC0F620FF5A
:1007000005272795179502BB1C3F98F620FF052764
:10071000279517951C3F02BB70F600C0499120FF3A
:10072000052702BB279517951C3F38F620FF0527A4
:10073000279502BB17951C3F38F520FF0527279505
:10074000179502BB1C3F10F520FF0527279517952D
:100750001C3F02BBE8F4242F3A9519F6077E5F91FF
:1007600002BB10919E00110FC651D04011F01093A2
:10077000980010E81ABF006111B3177E402F477E22
:1007800002BB11BB42BB5FCF0527D3CF0527D8CF14
:040790000527DDCF8D
:040794003C5AFF00CC
:00000001FF
