:100000003FC03EC097C20600FF0901A101150026AE
:10001000FF007508850195060900B2020185029569
:100020001E0900B20201850395260900B20201C033
:1000300009021B00010100800A09040000000300FE
:100040000000092101010001222A00120110010013
:10005000000008C016DC050001010203010403379B
:1000600000100348004900440061007300700078EC
:10007000000A035900430049005400040309040026
:1000800011241FBECFEDCDBFA0E6B0E0E2EDF7E05A
:1000900005900D92A436E1F71D92AC3BE9F71FC124
:1000A0008FB980E48EB980916000882309F589E1D9
:1000B0008DB99BE19DB900008DB900009DB900008C
:1000C0008DB900009DB900008DB900009DB90000F8
:1000D0008DB900009DB900008DB900009DB90000E8
:1000E0008DB900009DB900008DB900009DB914C004
:1000F000813029F48BE18DB9769BFDCF0DC0982F0F
:10010000923031F000C000C000C000C09150F8CF64
:100110008BE18DB9769BF4CF8FB199270895EF923B
:10012000FF920F931F93CF93DF9390916A001091EA
:100130006B00392F3E7F292F287F85E580936A0049
:10014000303151F4CAE6D0E013E08981A9DF899308
:10015000115017FFFACF77C0943139F4109364002F
:1001600010926600109265006EC0203209F047C000
:10017000E92EFF24E1FE07C080E480936400109222
:1001800066001092650000E0011728F5CAE6D0E08D
:100190008091640085DF8091660082DF8091650038
:1001A0007FDF8A817DDF888320916400822F8878B9
:1001B00059F08091650090916600019690936600D9
:1001C00080936500277F01C02860209364000F5F43
:1001D00021960117E8F2E2FE36C0C02FDD278AE63D
:1001E000E82E80E0F82EC459DF4F13E0899158DFE4
:1001F000F70181937F01115017FFF8CF24C09C3382
:1002000019F4109360001FC03E33E9F4E0916C00D4
:10021000F0916D009F3359F490E09117A0F4AAE695
:10022000B0E081918D939F5F9117D8F30CC020911E
:100230006E0090916F00992329F080818923822B91
:10024000808301C02083DF91CF911F910F91FF9098
:10025000EF900895FC018081807691818032C1F415
:10026000913061F482818093690089E690E09093F7
:10027000A1008093A000868199270895993041F4C8
:10028000109267008681809368008FEF90E0089558
:1002900080E090E00895DC0180916800861708F402
:1002A000682F861B8093680020E0261768F48091F1
:1002B0006700E82FFF27E759FF4F9D9190838F5FDD
:1002C000809367002F5FF1CF80916800882321F42D
:1002D00026DF81E090E0089580E090E00895CFED82
:1002E000D0E0DEBFCDBF87EE81BB88E088BB8FE06A
:1002F00087BB8AE18DB9FED0789401D0FECFCF9331
:10030000DF936091A200635067FDA2C080919F00BF
:10031000C2EBD0E0C81BD10980919E008D3209F05C
:1003200085C0683009F092C083EC809392008AE522
:1003300080936100109291008881807619F0CE013F
:1003400089DF60C04BE950E02A8180939B0099814E
:10035000992321F480939C0082E050C0953019F4D9
:100360002093A3004BC09630E1F5382F8B8181306C
:1003700021F432E18BE490E02BC0823021F43BE1A8
:1003800080E390E025C08330C1F4222321F434E0DF
:100390008BE790E01DC0213021F43AE081E790E046
:1003A00017C0223021F430E181E690E011C0233003
:1003B00099F434E08DE590E00BC0813221F439E00E
:1003C00082E490E005C0823239F43AE286E090E0BF
:1003D0009093A1008093A00080E480939100832FEC
:1003E00011C0983019F445EA50E007C0993019F46B
:1003F0002093A50003C09A3009F481E05093A10036
:100400004093A000982F8F3F39F4888187FD9E810B
:1004100080E88093910007C08F81882321F48E812A
:10042000891708F4982F9093620010C08091910072
:1004300087FF0CC0CE012FDF8F3F21F48EE1809328
:10044000610004C0882311F0109262001092A20093
:100450008091610084FF3FC0809162008F3F09F46A
:100460003AC0682F893008F068E0861B80936200EC
:100470008091920098E8892780939200A3E9B0E0E8
:100480006623C1F0962FE091A000F091A100809129
:10049000910086FF07C0C895802D8D9331969150AD
:1004A000D1F704C081918D939150E1F7F093A100B1
:1004B000E093A0007727C62F693038F483E990E0F5
:1004C00035D0CC5FCC3028F401C0CEE18FEF8093E3
:1004D0006200C09361009AE080B3887111F491507A
:1004E000D9F7992321F49093A30090939D00DF9175
:1004F000CF91089585B78C6085BF8BB780688BBF1F
:100500000895A82FB92F80E090E041E050EA60956F
:100510006F5F58F42D9138EF82279795879510F0EB
:10052000842795273F5FC8F3F3CF0895EADF8D93C3
:100530009D930895CF93CFB7CF93849BFECF849B99
:1005400009C0849B07C0849B05C0849B03C0849B17
:1005500001C0A1C0DF93C0919F00DD27CA55DF4FC6
:10056000849B02C0DF91EBCF2F930F931F9300B3B7
:100570002FEF04FB20F94F933F9310B34FEF012768
:1005800004FB21F93BE031C04E7F012F10B3216005
:1005900028C0102F4D7F2260000000B329C04B7F80
:1005A0002460012F000010B32BC010B3477F2860D8
:1005B0002AC04F7E00B320612CC04F7D10B3206253
:1005C0002FC04F7B00B3206432C0422700B3499351
:1005D0004FEF0000102714FB20F910B31871C9F178
:1005E000297F91F2012704FB21F900B3237F89F2CF
:1005F000315058F1102714FB22F910B3277E79F2FD
:10060000012704FB23F92F7C81F200B3102714FB90
:1006100024F92F7971F200C010B3012704FB25F9EA
:100620002F7359F200C000B3102714FB26F92230B3
:1006300040F200C010B3012704FB27F9243028F64C
:100640004F77206810B30000F9CF10E81ABF0027D9
:1006500017C03B503195C31BD04010E81ABF08812A
:10066000033CE9F00B34D9F020919D001981110F62
:100670001213EDCF093641F10D3211F0013E39F779
:100680000093A4003F914F911F910F912F91DF9103
:10069000CAB7C7FD52CFCF91CFBFCF911895009168
:1006A000A400002379F31091A200112349F53430FE
:1006B0004AF13093A20000939E0010919F003BE00E
:1006C000311B30939F001EC00091A2000130C4F482
:1006D0000AE53091610034FD17C000936100C2E962
:1006E000D0E016C0052710E002BB1FC0052722C0BE
:1006F000052727C005272CC0052710E002BB33C003
:100700004AE503C042ED01C0432FC4E1D0E032E02E
:1007100011B31861949A02B311BB5F9358E120E8BA
:1007200020FF052702BB279517951C3FD8F620FF11
:100730000527279502BB17951C3FC0F620FF05270C
:100740002795179502BB1C3F98F620FF0527279594
:1007500017951C3F02BB70F600C0499120FF05278A
:1007600002BB279517951C3F38F620FF05272795D4
:1007700002BB17951C3F38F520FF052727951795D5
:1007800002BB1C3F10F520FF0527279517951C3F3E
:1007900002BBE8F4242F3A9519F6077E5F9102BB5D
:1007A0001091A300110FC651D04011F010939D007D
:1007B00010E81ABF006111B3177E402F477E02BBBD
:1007C00011BB42BB5FCF0527D3CF0527D8CF052765
:0207D000DDCF7B
:0407D2003C5AFF008E
:00000001FF
