:100000004AC049C027C20600FF0901A10115002608
:10001000FF007508850195060900B2020185029569
:100020001E0900B20201850395260900B20201856E
:100030000495040900B20201C0040309040A03592B
:100040000043004900540010034800490044006187
:10005000007300700078000A033000300030003078
:10006000001201100100000008C016DF05000101A8
:10007000020301090222000101008032090400008C
:1000800001030000000921010100012233000705DE
:1000900081030800C80011241FBECFEDCDBFA0E62C
:1000A000B0E0E6EBF6E005900D92A236E1F71D9286
:1000B000A639E9F76CC0FC018081813039F48AE50A
:1000C0008093630081818093640008958F3381F46D
:1000D00042815181A3E6B0E0842F93819C01F90114
:1000E00002C081918D938E2F841B8517D0F30895C4
:1000F0008E3369F4A281B38124819581992329F0FB
:100100008C919823922B9C9308952C93089584317D
:1001100011F4618072800895DC0111969C91119711
:100120008C9180768032F1F49130A9F412962C9162
:1001300012972093620082E690E090937B00809378
:100140007A00243029F4E72DF0E080818093630069
:1001500016968C910895993029F4442416965C9053
:100160008FEF089580E008951F93252D162F5616C2
:1001700008F4152D522E511A442011F401969BDFDC
:10018000410E80E0552009F481E01F9108958824F4
:1001900004C088EC90E010D0839485E98815C8F7F6
:1001A00082B3876682BB80EA81BB8FEF88BB17BAB8
:1001B00009D078940ED0FECF98E29150F1F781509B
:1001C000D9F7089585B78C6085BF8BB780688BBFE2
:1001D00008951F93CF93DF9360917C00635067FD78
:1001E000C5C080917900CCE0D0E0C81BD109C058CF
:1001F000DF4F809178008D3209F0A2C0683009F09D
:10020000AFC083EC80936C008AE58093600010920D
:100210006B008881807639F0CE017EDF282F8F3FFA
:1002200009F47DC083C09A8110927500898188236A
:1002300021F41092760022E06BC0853019F490937F
:100240007D0065C0863009F053C08B81813041F458
:1002500081E690E090937B0080937A0022E144C095
:10026000823041F483E790E090937B0080937A00A2
:1002700022E23AC0833019F5992341F489E390E0F2
:1002800090937B0080937A0024E02EC0913019F483
:100290008DE390E00EC0923041F487E490E09093BB
:1002A0007B0080937A0020E11FC09330E1F487E562
:1002B00090E090937B0080937A002AE015C0813211
:1002C00041F485E890E090937B0080937A0029E0E8
:1002D0000BC0823241F486E090E090937B008093E3
:1002E0007A0023E301C020E080E480936B001EC00D
:1002F000883021F421E08FE790E00CC0893019F4B8
:1003000090937F0004C08A3011F421E001C020E006
:1003100085E790E090937B0080937A0007C0888106
:1003200087FD2E8180E880936B0006C08F81882333
:1003300019F48E81821708F0822F8093610010C01B
:1003400080916B0087FF0CC0CE010EDF8F3F21F440
:100350008EE18093600004C0882311F01092610048
:1003600080917C00181614F410927C00809160003B
:1003700084FF49C0809161008F3F09F444C0182F69
:10038000893008F018E0811B8093610080916C0037
:1003900098E8892780936C00112341F120917A001D
:1003A00030917B0080916B0086FF0DC0ADE6B0E020
:1003B00080E090E0F901E80FF91FE491ED930196D8
:1003C0001817C1F708C0912FD901EDE6F0E08D9123
:1003D00081939150E1F71150812F90E01F5F0196BA
:1003E000820F931F90937B0080937A008DE690E0BC
:1003F000612F2CD0612F6C5F6C3019F08FEF8093E0
:1004000061006093600094E180B3887131F4915091
:10041000D9F710927D0010927700DF91CF911F9154
:100420000895A82FB92F80E090E041E050EA609550
:100430006F5F58F42D9138EF82279795879510F0CC
:10044000842795273F5FC8F3F3CF0895EADF8D93A4
:100450009D930895CF93CFB7CF93C395849BE9F72E
:10046000849B09C0849B07C0849B05C0849B03C0F8
:10047000849B01C0A3C0DF93C0917900DD27C058E1
:10048000DF4F849B02C0DF91EBCF2F930F931F931D
:1004900000B32FEF04FB20F94F933F9310B34FEFBE
:1004A000012704FB21F93BE031C04E7F012F10B33F
:1004B000216028C0102F4D7F2260000000B329C0AA
:1004C0004B7F2460012F000010B32BC010B3477F77
:1004D00028602AC04F7E00B320612CC04F7D10B32E
:1004E00020622FC04F7B00B3206432C0422700B38C
:1004F00049934FEF0000102714FB20F910B3187137
:10050000C9F1297F91F2012704FB21F900B3237F70
:1005100089F2315058F1102714FB22F910B3277ECD
:1005200079F2012704FB23F92F7C81F200B3102715
:1005300014FB24F92F7971F200C010B3012704FBDA
:1005400025F92F7359F200C000B3102714FB26F9C8
:10055000223040F200C010B3012704FB27F92430F9
:1005600028F64F77206810B30000F9CF10E81ABFC3
:10057000002719C03B503195C31BD04010E81ABF6B
:100580000881033CF9F00B34E9F0209177001981E0
:10059000110F1213EDCF4A81441F093641F10D327C
:1005A00011F0013E29F700937E003F914F911F917A
:1005B0000F912F91DF91CAB7C7FD4FCFCF91CFBF1A
:1005C000CF91189520917E00222379F310917C0021
:1005D000112321F5343022F130937C0020937800F0
:1005E000109179003BE0311B3093790019C00091E4
:1005F0007C0001309CF40AE54F7081F4309160007A
:1006000034FD10C000936000CCE6D0E00FC0279509
:10061000A8F45150A9F4220F0000F9CF4AE503C015
:1006200042ED01C0432FC4E1D0E032E011B31861C4
:10063000949A11BB02B320E418E15F93012756E0BE
:1006400002BB279520F4515021F4220FF9CF012746
:1006500056E000003B5A02BBD0F2279528F45150D7
:1006600029F4220F0000F9CF012756E0279502BB9D
:1006700020F4515021F4220FF9CF012756E029919F
:10068000332302BB21F6077E10917D00110FC65166
:10069000D04002BB11F01093770010E81ABF006140
:1006A00011B3177E402F477E5F9100C000C002BB90
:0606B00011BB42BB7ACF32
:0206B6005AFFE9
:00000001FF
