:2000000012C0189518951895189518951895189518951895189518951895189518951895EB
:200020001895189518958FED8DBFC0EDE8ED4E2EDD275D2EEEE7F0E0A0E6B0E088278D93DA
:200040003197E9F783E389B980E082B988E18AB9662488EE93E035D0A0E60ED0E6EBF1E08B
:200060001AD0A0ECB0E0E0E6F0E054D00CD019D084EF91E026D0F0CFED91FC91EF5FFF4FBB
:20008000FC93EE930895A0ECB0E08D91882311F00BD0FBCF089524D0802D11F005D0FBCF4A
:2000A00008958DE001D08AE05D9BFECF8CB908953197F1F70895689462F80895E89462F83E
:2000C0000895EF93FF93EE27E82BE92B31F0E0EDF7E03197F1F70197D1F7FF91EF910895B1
:2000E000C895319600200895000F111F221F331F089500951095209530950F5F1F4F2F4FA2
:200100003F4F0895019110810EC001911191219130810BC00191108117FF05C03FEF2FEF17
:2001200004C0008111272227332737FF03C0E1DF8DE28D93CF93DF93CF92DF92EF92AA2462
:20014000BB24CC24DD24EE2440E2CAE0DD2755E093E38881890F87FD9F7083FD907F891BDB
:2001600089935A95A9F7C0DFAA1CBB1CCC1CDD1CEE1C4A9551F7E894EFE0FF2782910ED024
:20018000EB30E0F71EF068948A2D0CD088278D93EF90DF90CF90DF91CF910895982F829569
:2001A00001D0892F8F70805D26F0803309F4089568948D9308957465737420660000FFFF7A
:00000001FF
