:1000000046C045C0FAC10600FF0901A1011500263E
:10001000FF007508850195060900B2020185029569
:100020001E0900B20201850395260900B20201856E
:100030000495040900B20201C009021B000101007D
:1000400080320904000000030000000921010100C2
:10005000012233001201100100000008C016DF0564
:100060000001010203010A033000300030003000BB
:1000700010034800490044006100730070007800DC
:100080000A035900430049005400040309041124E1
:100090001FBECFEDCDBFA0E6B0E0E4E5F6E00590F1
:1000A0000D92A236E1F71D92A639E9F76BC0FC016B
:1000B0008081813039F48AE5809363008181809367
:1000C000640008958F3371F4A281B381918120E09F
:1000D0002917D8F4E3E6F0E08D9181932F5F29177B
:1000E000D8F308958E3369F4A281B3812481958178
:1000F000992329F08C918923822B8C9308952C933A
:100100000895843111F4618072800895DC018C912E
:100110008076FD0191818032F1F49130A1F4228149
:100120002093620082E690E090937B0080937A00B7
:10013000243029F4E72DFF27808180936300FD019F
:10014000868199270895993031F44424FD01568021
:100150008FEF90E0089580E090E00895CF93C62F50
:10016000561608F4C52D5C1A442011F401969FDF41
:100170004C0E552019F481E090E002C080E090E040
:10018000CF910895CFEDD0E0DEBFCDBF882488ECBD
:1001900090E010D0839485E98815C8F782B387660C
:1001A00082BB80EA81BB8FEF88BB17BA06D17894F7
:1001B00007D0FECF98E29150F1F78150D9F708951A
:1001C000CF93DF9360917C00635067FDA6C0809160
:1001D0007900CCE8D0E0C81BD109809178008D323D
:1001E00009F085C0683009F092C083EC80936C0000
:1001F0008AE58093600010926B008881807619F008
:10020000CE0184DF60C045E750E02A81809375000D
:100210009981992321F48093760082E050C0953033
:1002200019F420937D004BC09630E1F5382F8B8177
:10023000813021F432E184E590E02BC0823021F45A
:100240003BE189E390E025C08330C1F4222321F40F
:1002500034E08AE890E01DC0213021F43AE080E8E3
:1002600090E017C0223021F430E180E790E011C027
:10027000233099F43AE086E690E00BC0813221F415
:1002800039E08BE490E005C0823239F433E386E054
:1002900090E090937B0080937A0080E480936B00E1
:1002A000832F11C0983019F44FE750E007C0993000
:1002B00019F420937F0003C09A3009F481E0509331
:1002C0007B0040937A00982F8F3F39F4888187FD17
:1002D0009E8180E880936B0007C08F81882321F482
:1002E0008E81891708F4982F9093610010C0809137
:1002F0006B0087FF0CC0CE0131DF8F3F21F48EE110
:100300008093600004C0882311F0109261008091F6
:100310007C00181614F410927C008091600084FF19
:100320003FC0809161008F3F09F43AC0682F893047
:1003300008F068E0861B8093610080916C0098E86B
:10034000892780936C00ADE6B0E06623C1F0962F5C
:10035000E0917A00F0917B0080916B0086FF07C0EE
:10036000C895802D8D9331969150D1F704C081911D
:100370008D939150E1F7F0937B00E0937A0077271B
:10038000C62F693038F48DE690E033D0CC5FCC30A6
:1003900028F401C0CEE18FEF80936100C09360002C
:1003A00094E180B3887131F49150D9F790937D0036
:1003B00090937700DF91CF91089585B78C6085BFCA
:1003C0008BB780688BBF0895A82FB92F80E090E08D
:1003D00041E050EA609530E009C02D918227979561
:1003E000879510F084279527305EC8F36F5FA8F3D8
:1003F0000895EADF8D939D930895CF93CFB7CF9360
:10040000C395849BE9F7849B09C0849B07C0849BA8
:1004100005C0849B03C0849B01C0A1C0DF93C09131
:100420007900DD27C058DF4F849B02C0DF91EBCFFE
:100430002F930F931F9300B32FEF04FB20F94F93DB
:100440003F9310B34FEF012704FB21F93BE031C08C
:100450004E7F012F10B3216028C0102F4D7F2260E6
:10046000000000B329C04B7F2460012F000010B3AF
:100470002BC010B3477F28602AC04F7E00B3206195
:100480002CC04F7D10B320622FC04F7B00B320647F
:1004900032C0422700B349934FEF0000102714FBEE
:1004A00020F910B31871C9F1297F91F2012704FBDB
:1004B00021F900B3237F89F2315058F1102714FB42
:1004C00022F910B3277E79F2012704FB23F92F7C50
:1004D00081F200B3102714FB24F92F7971F200C0C8
:1004E00010B3012704FB25F92F7359F200C000B3A4
:1004F000102714FB26F9223040F200C010B3012768
:1005000004FB27F9243028F64F77206810B3000049
:10051000F9CF10E81ABF002717C03B503195C31B15
:10052000D04010E81ABF0881033CE9F00B34D9F041
:10053000209177001981110F1213EDCF093641F187
:100540000D3211F0013E39F700937E003F914F913B
:100550001F910F912F91DF91CAB7C7FD51CFCF9156
:10056000CFBFCF91189520917E00222379F310916F
:100570007C00112311F5343012F130937C0020936C
:100580007800109179003BE0311B3093790017C05F
:1005900000917C0001308CF40AE53091600034FD5C
:1005A00010C000936000CCE6D0E00FC02795A8F4FF
:1005B0005150A9F4220F0000F9CF4AE503C042EDE3
:1005C00001C0432FC4E1D0E032E011B31861949A26
:1005D00011BB02B320E418E15F93012756E002BB90
:1005E000279520F4515021F4220FF9CF012756E02E
:1005F00000003B5A02BBD0F2279528F4515029F451
:10060000220F0000F9CF012756E0279502BB20F406
:10061000515021F4220FF9CF012756E029913323BD
:1006200002BB21F6077E10917D00110FC651D0400C
:1006300002BB11F01093770010E81ABF006111B3EC
:10064000177E402F477E5F9100C000C002BB11BBE8
:0406500042BB7CCF5E
:020654005AFF4B
:00000001FF
