:1000000046C045C0FEC10600FF0901A1011500263A
:10001000FF007508850195060900B2020185029569
:100020001E0900B20201850395260900B20201856E
:100030000495040900B20201C009021B000101007D
:1000400080320904000000030000000921010100C2
:10005000012233001201100100000008C016DF0564
:100060000001010203010A033000300031003000BA
:1000700010034800490044006100730070007800DC
:100080000A035900430049005400040309041124E1
:100090001FBECFEDCDBFA0E6B0E0ECEBF7E00590E2
:1000A0000D92A236E1F71D92A739E9F76BC0FC016A
:1000B0008081813039F48AE5809363008181809367
:1000C000640008958F3371F4A281B381918120E09F
:1000D0002917D8F4E3E6F0E08D9181932F5F29177B
:1000E000D8F308958E3369F4A281B3812481958178
:1000F000992329F08C918923822B8C9308952C933A
:100100000895843111F4618072800895DC018C912E
:100110008076FD0191818032F1F49130A1F4228149
:100120002093620082E690E090937C0080937B00B5
:10013000243029F4E72DFF27808180936300FD019F
:10014000868199270895993031F44424FD01568021
:100150008FEF90E0089580E090E00895CF93C62F50
:10016000561608F4C52D5C1A442011F401969FDF41
:100170004C0E552019F481E090E002C080E090E040
:10018000CF910895CFEDD0E0DEBFCDBF882488ECBD
:1001900090E014D0839485E98815C8F783E083BF85
:1001A00086E781BF82B3876682BB80EA81BB8FEF1F
:1001B00088BB17BA06D1789407D0FECF98E2915049
:1001C000F1F78150D9F70895CF93DF9360917D00C7
:1001D000635067FDA6C080917A00CDE8D0E0C81BCF
:1001E000D109809179008D3209F085C0683009F01D
:1001F00092C083EC80936D008AE58093600010923A
:100200006B008881807619F0CE0180DF60C046E700
:1002100050E02A81809376009981992321F480937C
:10022000770082E050C0953019F420937E004BC0D7
:100230009630E1F5382F8B81813021F432E184E56D
:1002400090E02BC0823021F43BE189E390E025C0AF
:100250008330C1F4222321F434E08AE890E01DC009
:10026000213021F43AE080E890E017C0223021F4F8
:1002700030E180E790E011C0233099F43AE086E65F
:1002800090E00BC0813221F439E08BE490E005C0AE
:10029000823239F433E386E090E090937C008093DF
:1002A0007B0080E480936B00832F11C0983019F499
:1002B00040E850E007C0993019F42093800003C053
:1002C0009A3009F481E050937C0040937B00982F92
:1002D0008F3F39F4888187FD9E8180E880936B0091
:1002E00007C08F81882321F48E81891708F4982F05
:1002F0009093610010C080916B0087FF0CC0CE010D
:100300002DDF8F3F21F48EE18093600004C08823AD
:1003100011F01092610080917D00181614F4109273
:100320007D008091600084FF3FC0809161008F3F1D
:1003300009F43AC0682F893008F068E0861B809382
:10034000610080916D0098E8892780936D00AEE68A
:10035000B0E06623C1F0962FE0917B00F0917C0025
:1003600080916B0086FF07C0C895802D8D933196D4
:100370009150D1F704C081918D939150E1F7F093A2
:100380007C00E0937B007727C62F693038F48EE637
:1003900090E033D0CC5FCC3028F401C0CEE18FEFB9
:1003A00080936100C093600094E180B3887131F460
:1003B0009150D9F790937E0090937800DF91CF9180
:1003C000089585B7886085BF8BB780688BBF089517
:1003D000A82FB92F80E090E041E050EA609530E02E
:1003E00009C02D9182279795879510F0842795272E
:1003F000305EC8F36F5FA8F30895EADF8D939D9395
:100400000895CF93CFB7CF93C395839BE9F7839B91
:100410001BC0839B19C0839B17C0839B15C0839B04
:1004200013C0DF93C2B7D0916C00C0936C00CD1B9A
:10043000C85CD1B7C33012F0D15003C0CE3F0AF42C
:10044000D395D1BFDF9141C1DF93C0917A00DD2701
:10045000CF57DF4F839B02C0DF91D9CF2F930F93EC
:100460001F9320E8839921604F933F930F928399C4
:1004700022601FEF3BE0022F220F00C083990C6027
:100480002027087040B311F4000037C0B2C043FF0A
:10049000C89540B3206800000227839B0BC0287FCB
:1004A00011F040B387C040B31E7F839B849902C084
:1004B0000993E8C043FDC89540B321604871839912
:1004C00008C0B1F3217F40B309F084C01D7F00C094
:1004D00000C043FFC89540B322600000839B08C062
:1004E000237E11F040B384C040B31B7F00C000C026
:1004F00043FDC89540B324600993839908C0277CC5
:1005000011F040B384C040B3177F00C000C043FF68
:10051000C89540B32860012F839B08C02F7811F045
:1005200040B384C040B30F7E00C000C043FDC895F7
:1005300040B320611FEF839908C02F7111F040B3C1
:1005400084C040B30F7D00C000C043FFC89540B3D6
:100550002062315038F0839B08C02F73223040B3A3
:1005600014F082C08BC00F7BC89543FDC89540B383
:100570002064000083998BCF2F77243040B30CF098
:1005800008C00F77000083CF43FDC89540B32068B3
:100590000000022783990AC0287F11F040B38ECF54
:1005A00040B31E7F839B849901C082CF43FFC895CF
:1005B00040B32160217F839B08C019F000C040B385
:1005C0008DCF40B31D7FC89500C043FDC89540B393
:1005D00022600000839908C0237E11F040B38CCFC5
:1005E00040B31B7F00C000C043FFC89540B32460E8
:1005F0000993839B08C0277C11F040B38CCF40B394
:10060000177F00C000C043FDC89540B32860012F8C
:10061000839908C02F7811F040B38CCF40B30F7E80
:1006200000C000C043FFC89540B320611FEF839B0B
:1006300008C02F7111F040B38CCF40B30F7D00C0C4
:1006400000C043FDC89540B320623150B8F0839993
:1006500007C02F73223040B30CF08CCF0F7BC895AE
:1006600043FFC89540B32064839B8ECF2F772430FF
:1006700040B30CF011CF0F77000086CF10E81ABFFF
:10068000002717C03B503195C31BD04010E81ABF5C
:100690000881033CF1F00B34E1F0209178001981DE
:1006A000110F1213EDCF093649F10D3211F0013E51
:1006B00039F700937F000F903F914F911F910F9159
:1006C0002F91DF91CAB7C7FD9FCECF91CFBFCF91FA
:1006D000189520917F00222371F310917D00112342
:1006E00011F5343012F130937D0020937900109190
:1006F0007A003BE0311B30937A0017C000917D00F7
:1007000001308CF40AE53091600034FD0FC0009395
:100710006000CDE6D0E00EC0279598F4415099F4E2
:10072000220F0000F9CF3AE501C032ED032EC0E000
:10073000D0E032E011B31861939A11BB02B320E408
:1007400018E1012746E002BB279520F4415021F42F
:10075000220FF9CF012746E000C03B5A02BBE0F26E
:10076000279528F4415029F4220F0000F9CF0127E2
:1007700046E0279502BB20F4415021F4220FF9CF27
:10078000012746E029910000332302BB29F6077EAA
:1007900010917E00110FC250D04002BB11F0109397
:1007A000780010E81ABF086011B3177E402F477E0B
:0C07B000C895C89502BB11BB42BB7DCFB1
:0207BC005AFFE2
:00000001FF
