:100000004CC04BC068C20600FF0901A101150026C3
:10001000FF007508850195060900B2020185029569
:100020000E0900B20201850395160900B20201858E
:1000300004951E0900B20201850595260900B20249
:10004000018506952E0900B20201C009021B0001BC
:100050000100800A090400000003000000092101DA
:100060000100012245001201100100000008C01625
:10007000DC050001010203010403370010034800FE
:100080004900440061007300700078000A035900C1
:100090004300490054000403090411241FBECFED9E
:1000A000CDBFA0E6B0E0E4E7F7E005900D92A436FE
:1000B000E1F71D92AD3BE9F7E0C08FB980E48EB95E
:1000C00090916000992329F0892F00000000815051
:1000D000E0F78BE18DB9769BF5CF8FB19927089525
:1000E000CF92DF92FF920F931F93CF93DF93FC0188
:1000F0008081C181982F9E7F813019F4C0936B005D
:1001000060C0823061F482B38C7FC3708C2B82BB61
:1001100098B3907E82818F71982B98BB52C090319A
:1001200081F4CBE6D0E08F010F5F1F4FF801819182
:100130008F01C3DF8993F0E0CE36DF07B9F3B4F364
:1001400040C0843139F4C09364001092660010926C
:10015000650037C0963189F5FF24FC1690F58BE6D3
:10016000C82E80E0D82E8F010E5F1F4F8091640053
:10017000A4DF80916600A1DF809165009EDFF80119
:1001800081918F019ADFF60181936F0120916400C4
:10019000822F887859F080916500909166000196D1
:1001A0009093660080936500277F01C028602093AC
:1001B0006400F394FC16D0F204C08C3311F4C093A5
:1001C0006000DF91CF911F910F91FF90DF90CF9052
:1001D0000895FC0180818076803209F5818181302B
:1001E00061F485E080936A008AE690E09093A20033
:1001F0008093A10088E290E00895893081F48281A3
:10020000809367001092680086818093690089322C
:1002100018F088E2809369008FEF90E0089580E005
:1002200090E0089520916900261708F4622F261B9C
:100230002093690020E0261778F4DC0180916800A3
:10024000E82FFF27E659FF4F9D9190838F5F8093A2
:1002500068002F5F261790F380916900882351F47E
:1002600080916700882319F08BE690E039DF81E008
:1002700090E0089580E090E00895CFEDD0E0DEBFFB
:10028000CDBF87EE81BB88E188BB8FED87BB8AE15C
:100290008DB98FEF80936700FED0789401D0FECFA8
:1002A000CF93DF936091A300635067FDA2C080915C
:1002B000A000C3EBD0E0C81BD10980919F008D3214
:1002C00009F085C0683009F092C083EC80939300F8
:1002D0008AE580936100109292008881807619F0FF
:1002E000CE0177DF60C04CE950E02A8180939C000A
:1002F0009981992321F480939D0082E050C095302C
:1003000019F42093A4004BC09630E1F5382F8B816F
:10031000813021F432E186E690E02BC0823021F476
:100320003BE18BE490E025C08330C1F4222321F42B
:1003300034E086E990E01DC0213021F43AE08CE8F9
:1003400090E017C0223021F430E18CE790E011C03A
:10035000233099F434E088E790E00BC0813221F437
:1003600039E08DE590E005C0823239F435E486E06D
:1003700090E09093A2008093A10080E4809392008B
:10038000832F11C0983019F446EA50E007C0993025
:1003900019F42093A60003C09A3009F481E0509329
:1003A000A2004093A100982F8F3F39F4888187FDE8
:1003B0009E8180E88093920007C08F81882321F47A
:1003C0008E81891708F4982F9093620010C0809155
:1003D000920087FF0CC0CE0125DF8F3F21F48EE114
:1003E0008093610004C0882311F010926200109283
:1003F000A3008091610084FF3FC0809162008F3F25
:1004000009F43AC0682F893008F068E0861B8093B1
:1004100062008091930098E8892780939300A4E973
:10042000B0E06623C1F0962FE091A100F091A20008
:100430008091920086FF07C0C895802D8D933196DC
:100440009150D1F704C081918D939150E1F7F093D1
:10045000A200E093A1007727C62F693038F484E921
:1004600090E035D0CC5FCC3028F401C0CEE18FEFE6
:1004700080936200C09361009AE080B3887111F4A8
:100480009150D9F7992321F49093A40090939E0062
:10049000DF91CF91089585B78C6085BF8BB7806859
:1004A0008BBF0895A82FB92F80E090E041E050EA7B
:1004B00060956F5F58F42D9138EF82279795879557
:1004C00010F0842795273F5FC8F3F3CF0895EADF44
:1004D0008D939D930895CF93CFB7CF93849BFECFF9
:1004E000849B09C0849B07C0849B05C0849B03C078
:1004F000849B01C0A1C0DF93C091A000DD27C95536
:10050000DF4F849B02C0DF91EBCF2F930F931F939C
:1005100000B32FEF04FB20F94F933F9310B34FEF3D
:10052000012704FB21F93BE031C04E7F012F10B3BE
:10053000216028C0102F4D7F2260000000B329C029
:100540004B7F2460012F000010B32BC010B3477FF6
:1005500028602AC04F7E00B320612CC04F7D10B3AD
:1005600020622FC04F7B00B3206432C0422700B30B
:1005700049934FEF0000102714FB20F910B31871B6
:10058000C9F1297F91F2012704FB21F900B3237FF0
:1005900089F2315058F1102714FB22F910B3277E4D
:1005A00079F2012704FB23F92F7C81F200B3102795
:1005B00014FB24F92F7971F200C010B3012704FB5A
:1005C00025F92F7359F200C000B3102714FB26F948
:1005D000223040F200C010B3012704FB27F9243079
:1005E00028F64F77206810B30000F9CF10E81ABF43
:1005F000002717C03B503195C31BD04010E81ABFED
:100600000881033CE9F00B34D9F020919E00198158
:10061000110F1213EDCF093641F10D3211F0013EE9
:1006200039F70093A5003F914F911F910F912F91A2
:10063000DF91CAB7C7FD52CFCF91CFBFCF911895E9
:100640000091A500002379F31091A300112349F52F
:1006500034304AF13093A30000939F001091A00022
:100660003BE0311B3093A0001EC00091A30001307D
:10067000C4F40AE53091610034FD17C000936100B5
:10068000C3E9D0E016C0052710E002BB1FC0052754
:1006900022C0052727C005272CC0052710E002BB74
:1006A00033C04AE503C042ED01C0432FC4E1D0E0AE
:1006B00032E011B31861949A02B311BB5F9358E111
:1006C00020E820FF052702BB279517951C3FD8F689
:1006D00020FF0527279502BB17951C3FC0F620FF7A
:1006E00005272795179502BB1C3F98F620FF052785
:1006F000279517951C3F02BB70F600C0499120FF5B
:10070000052702BB279517951C3F38F620FF0527C4
:10071000279502BB17951C3F38F520FF0527279525
:10072000179502BB1C3F10F520FF0527279517954D
:100730001C3F02BBE8F4242F3A9519F6077E5F911F
:1007400002BB1091A400110FC651D04011F01093BC
:100750009E0010E81ABF006111B3177E402F477E3C
:1007600002BB11BB42BB5FCF0527D3CF0527D8CF34
:040770000527DDCFAD
:040774003C5AFF00EC
:00000001FF
